:100000000C9461000C947E000C947E000C947E0095
:100010000C946F040C947E000C947E000C947E0073
:100020000C947E000C947E000C947E000C947E0058
:100030000C947E000C947E000C947E000C947E0048
:100040000C94D5030C947E000C947E000C947E00DE
:100050000C947E000C947E000C947E000C947E0028
:100060000C947E000C947E0008000000BE9224498F
:10007000123EABAAAA2ABECDCCCC4C3E00000080DA
:10008000BEABAAAAAA3E00000000BF000000803F4D
:100090000000000000084178D3BB4387D1133D190D
:1000A0000E3CC3BD4282AD2B3E68EC8276BED98F3A
:1000B000E1A93E4C80EFFFBE01C4FF7F3F0000007E
:1000C000000011241FBECFEFD8E0DEBFCDBF12E08D
:1000D000A0E0B1E0E6E0FEE102C005900D92A63A94
:1000E000B107D9F722E0A6EAB2E001C01D92AF3C09
:1000F000B207E1F70E94E1040C94010F0C94000098
:1001000027E030E090E0AC01022E02C05595479503
:100110000A94E2F740FF07C0289A5F9A5F9821503F
:10012000310988F708952898F8CFAC0190E0FA01DA
:10013000E90FF11D2081211101C008958091C000B7
:1001400085FFFCCF2093C6009F5FF1CF9091C00048
:1001500095FFFCCF8093C60090E080E00895CF9398
:10016000C82F5C98E62FF0E0EA52FE4F80810E9493
:100170008000EC2FF0E0EE52FE4F80810E94800064
:100180005C9ACF910895CF93C82F6F3571F45C9826
:1001900087EF0E948000EC2FF0E0EE52FE4F80814E
:1001A0000E9480005C9ACF9108956F3319F45C9897
:1001B00088E5EFCF8FE9860F8A3108F460528FEB24
:1001C000860F8A3180F75C98E62F660FFF0BE9589F
:1001D000FE4F8081DECF60E280E00E94C30060E2DB
:1001E00081E00E94C30060E282E00E94C30060E2FE
:1001F00083E00C94C3008F929F92AF92BF92CF92F4
:10020000DF92EF92FF92CF93DF93EC017B01688145
:1002100080E00E94C300B701FF0C880B990B0E947D
:1002200042094B015C0120E030E04AE755E40E94BE
:10023000470A6B017C0120E030E040E85FE30E9468
:10024000930887FDAFC020E03FEF4FE757E4C701B9
:10025000B6010E94F20918160CF09CC020E030E0B4
:1002600040E251E4C501B4010E94470A0E9411090D
:1002700020E931E06115710509F086C0698181E0EE
:100280000E94C30020E030E040E85FE3C701B60110
:100290000E94930887FD97C020E03FEF4FE757E4A7
:1002A000C701B6010E94F20918160CF084C020E0C4
:1002B00030E040E251E4C501B4010E94470A0E94C7
:1002C000110920E931E06115710509F06EC06A81FC
:1002D00082E00E94C30020E030E040E85FE3C70115
:1002E000B6010E94930887FD7FC020E03FEF4FE7F3
:1002F00057E4C701B6010E94F20918160CF06CC051
:1003000020E030E040E251E4C501B4010E94470A18
:100310000E94110920E931E06115710509F056C00C
:100320006B8183E00E94C30020E030E040E85FE39F
:10033000C701B6010E94930887FD67C020E03FEF28
:100340004FE757E4C701B6010E94F20918160CF0F6
:1003500054C020E030E040E251E4C501B4010E9405
:10036000470A0E94110920E931E06115710509F081
:100370003EC0DF91CF91FF90EF90DF90CF90BF9084
:10038000AF909F908F900895C9010197F1F7615048
:10039000710970CFC701B6010E941109CB01019705
:1003A000F1F76CCF61E070E0F9CFC9010197F1F787
:1003B0006150710988CFC701B6010E941109CB01B4
:1003C0000197F1F784CF61E070E0F9CFC90101979F
:1003D000F1F761507109A0CFC701B6010E94110960
:1003E000CB010197F1F79CCF61E070E0F9CFC90133
:1003F0000197F1F761507109B8CFC701B6010E94AA
:100400001109CB010197F1F7B4CF61E070E0F9CFAA
:10041000CF93C82F5C98E62FF0E0E255FE4F808125
:100420000E948000EC2FF0E0EE52FE4F80810E948F
:1004300080005C9ACF9108952F923F924F925F92E5
:100440006F927F928F929F92AF92BF92CF92DF92E4
:10045000EF92FF920F931F93CF93DF93CDB7DEB749
:1004600067970FB6F894DEBF0FBECDBF69017A0162
:100470009B01AC0160E074E284E799E40E94980873
:100480000E9411096D877E878F87988BA8EEB3E055
:10049000A70196010E94E2076A8B7B8B8C8B9D8B58
:1004A0006D857E858F8598899695879577956795D3
:1004B0000E94400969837A838B839C832BEA3AEA02
:1004C0004AEA50E40E94470A6B017C0120E030E0D8
:1004D00040E850E469817A818B819C810E94470ABF
:1004E00069877A878B879C87C701B6010E941109AB
:1004F000698B69857A858B859C850E9411098B01A2
:100500001D821E821F82188630E9232E33243394E5
:100510005B9820E030E040E85FE3C701B6010E944D
:10052000930887FDB4C020E03FEF4FE757E46985AB
:100530007A858B859C850E94F20918160CF049C0BB
:1005400020E030E04AE754E469817A818B819C8124
:100550000E9498082B013C0120E030E04AE755E476
:100560000E94470A4B015C0120E030E040E85FE375
:100570000E94930887FD2AC020E03FEF4FE757E431
:10058000C501B4010E94F2091816C4F420E030E05D
:1005900040E251E4C301B2010E94470A0E941109DE
:1005A0006115710529F44F894A95F1F74F8B1FC0EA
:1005B000C1010197F1F761507109F2CFC501B40192
:1005C0000E941109CB010197F1F7EDCF61E070E0D6
:1005D000F9CF20E030E04FE753E4C701B6010E94B5
:1005E000F20918160CF056C0C8010197F1F75B9A92
:1005F00020E030E040E85FE3C701B6010E949308C5
:1006000087FD9CC020E03FEF4FE757E469857A857E
:100610008B859C850E94F20918160CF04FC020E0D3
:1006200030E04AE754E469817A818B819C810E94A1
:1006300098082B013C0120E030E04AE755E40E9495
:10064000470A4B015C0120E030E040E85FE30E9494
:10065000930887FD30C020E03FEF4FE757E4C50126
:10066000B4010E94F2091816F4F420E030E040E2F0
:1006700051E4C301B2010E94470A0E9411096115A9
:10068000710559F49E899A95F1F79E8B24C021E05B
:100690002F8B89CF39893F8B86CFC1010197F1F725
:1006A00061507109ECCFC501B4010E941109CB0161
:1006B0000197F1F7E7CF61E070E0F9CF20E030E09B
:1006C0004FE753E4C701B6010E94F2091816CCF5B2
:1006D000C8010197F1F72D813E814F8158858D85A5
:1006E0009E85AF85B889280F391F4A1F5B1F2D8350
:1006F0003E834F8358878A899B89AC89BD89281797
:1007000039074A075B0708F403CF67960FB6F894DA
:10071000DEBF0FBECDBFDF91CF911F910F91FF9034
:10072000EF90DF90CF90BF90AF909F908F907F9091
:100730006F905F904F903F902F90089551E05E8BA7
:10074000A1CF89898E8B9ECFCF93DF932091BA0260
:100750003091BB024AE0429FE001439FD00D11243B
:10076000C80FD91F3B832A838091160190911701EE
:100770009D838C838091BC029091BD029F838E8368
:100780008091BE029091BF02998388836091C002DC
:100790007091C1028091C2029091C3020E940A0925
:1007A00079876887DF91CF9108951F920F920FB6D6
:1007B0000F921124CF92DF92EF92FF922F933F93EB
:1007C0004F935F936F937F938F939F93AF93BF9359
:1007D000EF93FF938091140190911501019709F413
:1007E00069C02FE632E143E851E46091C0027091A4
:1007F000C1028091C2029091C3020E9427086093B7
:10080000C0027093C1028093C2029093C302C09051
:100810000E01D0900F01E0901001F090110120E046
:1008200030E040E85FEBC701B6010E9493088823DF
:1008300049F08091A6029091A70201969093A70299
:100840008093A6026091A6027091A702072E000C69
:10085000880B990B0E9442099B01AC01C701B601AC
:100860000E949308181634F120E030E040E85FEB76
:10087000C701B6010E9493088823E1F00E94B307E4
:1008800067E070E00E94E90A8093B8029093B90291
:100890002091BC023091BD022F5F3F4F3093BD02CB
:1008A0002093BC02682F81E00E94AF001092A70243
:1008B0001092A602FF91EF91BF91AF919F918F91FE
:1008C0007F916F915F914F913F912F91FF90EF90AA
:1008D000DF90CF900F900FBE0F901F9018951F9232
:1008E0000F920FB60F9211242F933F934F935F9364
:1008F0006F937F938F939F93AF93BF93EF93FF93E8
:100900008091C402811105C0319903C081E08093B8
:10091000C402339942C088EC90E020E931E0F9014B
:100920003197F1F70197D9F7339937C02091B80281
:100930003091B902D901AA0FBB1FA855BD4F8D91A7
:100940009C9111978130910521F180911601909130
:10095000170147E0489FF001499FF00D1124E20F75
:10096000F31FEE0FFF1FEE5DFE4F80819181892BFB
:1009700029F181E090E08D939C9326E930E040E0FE
:1009800050E060E070ED82E894E40E941C0290E088
:1009900080E09093B7028093B602FF91EF91BF91F0
:1009A000AF919F918F917F916F915F914F913F9107
:1009B0002F910F900FBE0F901F90189581E090E03F
:1009C000E8CF2F923F924F925F926F927F928F92D9
:1009D0009F92AF92BF92CF92DF92EF92FF920F93CE
:1009E0001F93CF93DF9300D0CDB7DEB780917C000B
:1009F000806480937C0080917A00876080937A0085
:100A000080917A00806880937A00549A579A209A4D
:100A10001092C50087E68093C4008091C0008D7F4E
:100A20008093C00088E18093C10086E08093C2007B
:100A300080E091E09093C8028093C702539A5B9A3A
:100A400087B18E6087B988B18E6088B984B18C63B4
:100A500084B985B18C6385B90E94EB0080916800F0
:100A600082608093680080916C008E6080936C003F
:100A700084B5836084BD85B5856085BD80916E0039
:100A8000816080936E0078948DED91E00E949500D6
:100A90008DE192E00E949500A4EF4A2E55245394D4
:100AA0008091C402882309F49FC0C8010E94B8073E
:100AB00085B1837C85B984E690E00E94110B9A830E
:100AC00089832AE0C22ED12C34E0A32EB12C8824B5
:100AD0008394912C5EE0352E66246394712C44241B
:100AE0004A94542C6091BA027091BB026A3071052D
:100AF00044F48091120190911301181619060CF418
:100B0000C1C081E090E09093150180931401CE0163
:100B100001960E94A4030E94EB008E010F5F1F4FFD
:100B20006E01F5E6CF0ED11C88EEA82E83E0B82E1C
:100B300091E8E92E92E0F92EF80180859185B501C2
:100B40000E94E90A9F938F937F936F9381818F9384
:100B500080818F9387818F9386818F9385818F93F7
:100B600084818F9383818F9382818F93FF92EF9201
:100B70000E94360CF801828193810E94AD0BF8012E
:100B8000848195810E94AD0BF801868197810E9436
:100B9000AD0BF801808191810E94AD0BC8010896D0
:100BA0000E94AD0B065F1F4F0FB6F894DEBF0FBE5D
:100BB000CDBFC016D10609F0BFCF90E080E00F9006
:100BC0000F90DF91CF911F910F91FF90EF90DF90E9
:100BD000CF90BF90AF909F908F907F906F905F90DD
:100BE0004F903F902F900895E5E7F2E0912C812CF3
:100BF00084010F5F1F4F8191811117C005301105CE
:100C0000B4F464EF71E084E792E00E94FB0080910D
:100C10007A00806480937A0080917A0086FDFCCF10
:100C200000917800109179003BCF4801E1CF84E03A
:100C300090E00E94110B5C01E4E7CE2EE2E0DE2E94
:100C4000F3E0EF2EF12C3C0124E0620E711C42E037
:100C5000841A9108F501D6018D918193E615F70567
:100C6000D9F7C201B4010E94E90AC5010E94FB0044
:100C70005FEFE51AF50A8FEFC81AD80AE016F106F9
:100C800049F7C5CF8091160190911701019609F09F
:100C900071C01092A9021092A8021092AB02109299
:100CA000AA021092AD021092AC021092AF02109202
:100CB000AE021092B1021092B0021092B3021092E2
:100CC000B2021092B5021092B402072E000C880BEB
:100CD000990B0E94420920E030E048E452E40E946F
:100CE000470A9B01AC0160E070E08AEF93E40E9448
:100CF00026082FE632E143E851E40E949808609309
:100D00000E0170930F0180931001909311011092C6
:100D1000C0021092C1021092C2021092C30210923D
:100D20001501109214011092BF021092BE0210928F
:100D3000BD021092BC020E94B307B6010E94E90AEC
:100D400090931701809316010497A1F42BE430E0EF
:100D500040E050E060E070EC86E794E40E941C0202
:100D60002BE430E040E050E060E070EC84E294E49A
:100D70000E941C026091BA0280E00E940802609109
:100D8000160183E00E9408026091B80281E00E948F
:100D9000AF0008EA12E07801212CF70181919191CE
:100DA0007F01892B21F0622D82E00E94AF00239405
:100DB000F7E02F12F2CF8091B6029091B702892B03
:100DC000B1F180911201909113019C0121503109E0
:100DD0003093130120931201A501421B530B9A017A
:100DE000215031092430310558F425B10196F40120
:100DF00002C0EE0FFF1F8A95E2F7CF01822B85B963
:100E00008091BE029091BF0201969093BF028093A1
:100E1000BE0226E930E040E050E06CE57FEF83E47D
:100E200094E40E941C021092B7021092B6028091C4
:100E3000160190911701389E9001399E300D1124B2
:100E400090E080E0F801419151918F01F901E80FA4
:100E5000F91FEE5DFE4F608171816417750709F01F
:100E600041CE02968E30910569F78FEF99E00E948E
:100E7000A40370921501609214018091BA029091BE
:100E8000BB0201969093BB028093BA025092170165
:100E9000409216011092A9021092A8021092AB0281
:100EA0001092AA021092AD021092AC021092AF0200
:100EB0001092AE021092B1021092B0021092B302E0
:100EC0001092B2021092B5021092B4020BCE8F9221
:100ED0009F92AF92BF92CF92DF92EF92FF92CF9309
:100EE000DF93EC01688179818A819B8161157105AD
:100EF0008105910521F464E279ED8BE597E02DE120
:100F000033EF41E050E00E94C30749015A019B01C1
:100F1000AC01A7EAB1E40E94E2076B017C01ACEEF0
:100F2000B4EFA50194010E94F007DC01CB018C0D08
:100F30009D1DAE1DBF1DB7FF03C00197A109B0489D
:100F400088839983AA83BB839F77DF91CF91FF909A
:100F5000EF90DF90CF90BF90AF909F908F900895CB
:100F60000E946707089588E191E00E94670708954D
:100F7000B0E0A0E08093180190931901A0931A01AA
:100F8000B0931B010895052E97FB1EF400940E9458
:100F9000DA0757FD07D00E94F50707FC03D04EF48F
:100FA0000C94DA0750954095309521953F4F4F4F5F
:100FB0005F4F089590958095709561957F4F8F4F05
:100FC0009F4F08950E941708A59F900DB49F900D04
:100FD000A49F800D911D11240895B7FF0C94E20782
:100FE0000E94E207821B930B0895A1E21A2EAA1B0E
:100FF000BB1BFD010DC0AA1FBB1FEE1FFF1FA217C9
:10100000B307E407F50720F0A21BB30BE40BF50BC5
:10101000661F771F881F991F1A9469F7609570954E
:10102000809590959B01AC01BD01CF010895A29FD1
:10103000B001B39FC001A39F700D811D1124911DAC
:10104000B29F700D811D1124911D08955058BB272A
:10105000AA270E943E080C94B8090E94AA0938F0F9
:101060000E94B10920F039F49F3F19F426F40C9442
:10107000A7090EF4E095E7FB0C94A109E92F0E9463
:10108000C90958F3BA17620773078407950720F058
:1010900079F4A6F50C94EB090EF4E0950B2EBA2F1B
:1010A000A02D0B01B90190010C01CA01A00111246E
:1010B000FF27591B99F0593F50F4503E68F11A161A
:1010C000F040A22F232F342F4427585FF3CF4695AB
:1010D00037952795A795F0405395C9F77EF41F16CD
:1010E000BA0B620B730B840BBAF09150A1F0FF0F97
:1010F000BB1F661F771F881FC2F70EC0BA0F621F83
:10110000731F841F48F4879577956795B795F79572
:101110009E3F08F0B0CF9395880F08F09927EE0F07
:101120009795879508950E947D0908F481E00895B8
:101130000E94AC080C94B8090E94B10958F00E94B2
:10114000AA0940F029F45F3F29F00C94A10951113C
:101150000C94EC090C94A7090E94C90968F399231F
:10116000B1F3552391F3951B550BBB27AA276217A3
:101170007307840738F09F5F5F4F220F331F441FB0
:10118000AA1FA9F335D00E2E3AF0E0E832D09150E4
:101190005040E695001CCAF72BD0FE2F29D0660FD1
:1011A000771F881FBB1F261737074807AB07B0E814
:1011B00009F0BB0B802DBF01FF2793585F4F3AF01A
:1011C0009E3F510578F00C94A1090C94EC095F3F07
:1011D000E4F3983ED4F3869577956795B795F795A0
:1011E0009F5FC9F7880F911D9695879597F9089588
:1011F000E1E0660F771F881FBB1F62177307840724
:10120000BA0720F0621B730B840BBA0BEE1F88F732
:10121000E09508950E9411096894B1110C94EC09AD
:1012200008950E94D10988F09F5798F0B92F992707
:10123000B751B0F0E1F0660F771F881F991F1AF0C1
:10124000BA95C9F714C0B13091F00E94EB09B1E032
:1012500008950C94EB09672F782F8827B85F39F031
:10126000B93FCCF3869577956795B395D9F73EF45A
:1012700090958095709561957F4F8F4F9F4F089502
:10128000E89409C097FB3EF4909580957095619520
:101290007F4F8F4F9F4F9923A9F0F92F96E9BB27D6
:1012A0009395F695879577956795B795F111F8CF52
:1012B000FAF4BB0F11F460FF1BC06F5F7F4F8F4FBD
:1012C0009F4F16C0882311F096E911C0772321F0B3
:1012D0009EE8872F762F05C0662371F096E8862F4B
:1012E00070E060E02AF09A95660F771F881FDAF7A2
:1012F000880F9695879597F90895990F0008550FCF
:10130000AA0BE0E8FEEF16161706E807F907C0F08B
:1013100012161306E407F50798F0621B730B840B93
:10132000950B39F40A2661F0232B242B252B21F46D
:1013300008950A2609F4A140A6958FEF811D811D0D
:10134000089597F99F6780E870E060E008959FEF47
:1013500080EC089500240A9416161706180609064C
:10136000089500240A94121613061406050608951B
:10137000092E0394000C11F4882352F0BB0F40F4A3
:10138000BF2B11F460FF04C06F5F7F4F8F4F9F4FE3
:10139000089557FD9058440F551F59F05F3F71F065
:1013A0004795880F97FB991F61F09F3F79F08795CC
:1013B0000895121613061406551FF2CF4695F1DF55
:1013C00008C0161617061806991FF1CF86957105E5
:1013D000610508940895E894BB2766277727CB0119
:1013E00097F908950E947D0908F48FEF089516F08B
:1013F0000C94B40A0C94A70968940C94A1090E9457
:10140000D109A8F39923C1F3AEF3DF93CF931F93D0
:101410000F93FF92C92FDD2788232AF02197660FAB
:10142000771F881FDAF720E030E040E85FEB9FE3AA
:10143000883920F0803E38F021968F770E94270867
:10144000E8E6F0E004C00E942708E5E9F0E00E9429
:10145000C20A8B01BE01EC01FB2E6F577109759515
:10146000771F880B990B0E94420928E132E741E37C
:101470005FE30E945A0AAF2D9801AE01FF900F91D1
:101480001F91CF91DF910E943E080C94B8090E94F1
:101490005A0A0C94B8090E94AA0938F00E94B109AE
:1014A00020F0952311F00C94A1090C94A7091124A4
:1014B0000C94EC090E94C90970F3959FC1F3950F34
:1014C00050E0551F629FF001729FBB27F00DB11DC8
:1014D000639FAA27F00DB11DAA1F649F6627B00D58
:1014E000A11D661F829F2227B00DA11D621F739F41
:1014F000B00DA11D621F839FA00D611D221F749F4F
:101500003327A00D611D231F849F600D211D822F95
:10151000762F6A2F11249F5750409AF0F1F08823BC
:101520004AF0EE0FFF1FBB1F661F771F881F9150E9
:101530005040A9F79E3F510580F00C94A1090C94EE
:10154000EC095F3FE4F3983ED4F386957795679571
:10155000B795F795E7959F5FC1F7FE2B880F911D13
:101560009695879597F908959F3F31F0915020F413
:10157000879577956795B795880F911D969587956F
:1015800097F90895DF93CF931F930F93FF92EF92F4
:10159000DF927B018C01689406C0DA2EEF010E9475
:1015A0005A0AFE01E894A5912591359145915591EE
:1015B000A6F3EF010E943E08FE019701A801DA940C
:1015C00069F7DF90EF90FF900F911F91CF91DF911E
:1015D000089597FB072E16F4009407D077FD09D0E5
:1015E0000E94FD0A07FC05D03EF4909581959F4F1F
:1015F0000895709561957F4F0895AA1BBB1B51E11B
:1016000007C0AA1FBB1FA617B70710F0A61BB70B72
:10161000881F991F5A95A9F780959095BC01CD0117
:1016200008950F931F93CF93DF938230910510F4A9
:1016300082E090E0E091CD02F091CE0230E020E037
:10164000B0E0A0E0309799F42115310509F44AC0C3
:10165000281B390B24303105D8F58A819B8161150F
:10166000710589F1FB0193838283FE0111C04081E2
:1016700051810281138148175907E0F04817590733
:1016800099F4109761F012960C93129713961C938D
:101690003296CF01DF91CF911F910F910895009362
:1016A000CD021093CE02F4CF2115310551F042172F
:1016B000530738F0A901DB019A01BD01DF01F801F0
:1016C000C1CFEF01F9CF9093CE028093CD02CDCF61
:1016D000FE01E20FF31F8193919322503109398368
:1016E0002883D7CF2091CB023091CC02232B41F419
:1016F00020911E0130911F013093CC022093CB0228
:1017000020911C0130911D012115310541F42DB7A7
:101710003EB74091200150912101241B350BE091EF
:10172000CB02F091CC02E217F307A0F42E1B3F0B83
:101730002817390778F0AC014E5F5F4F2417350743
:1017400048F04E0F5F1F5093CC024093CB02819321
:1017500091939FCFF0E0E0E09CCFCF93DF93009791
:10176000E9F0FC01329713821282A091CD02B09170
:10177000CE02ED0130E020E01097A1F4208131810C
:10178000820F931F2091CB023091CC02281739078A
:1017900009F061C0F093CC02E093CB02DF91CF91CE
:1017A0000895EA01CE17DF07E8F54A815B819E01C3
:1017B00041155105B1F7E901FB83EA83499159913C
:1017C000C40FD51FEC17FD0761F48081918102964B
:1017D000840F951FE90199838883828193819B837C
:1017E0008A83F0E0E0E012968D919C911397009728
:1017F000B9F52D913C911197CD010296820F931F5F
:101800002091CB023091CC022817390739F6309756
:1018100051F51092CE021092CD02B093CC02A0935B
:10182000CB02BCCFD383C28340815181840F951FEB
:10183000C817D90761F44E5F5F4F88819981480FBF
:10184000591F518340838A819B8193838283211511
:10185000310509F0B0CFF093CE02E093CD029ECFD8
:10186000FD01DC01C0CF13821282D7CFB0E0A0E02F
:10187000ECE3FCE00C94DA0EAE014B5F5F4FFA0133
:1018800061917191AF018091C7029091C8020E944D
:101890004C0CE2E00C94F60EABE0B0E0E2E5FCE0CC
:1018A0000C94CA0E7C013B018A01FC01178216824E
:1018B000838181FFC8C1CE0101965C01F70193814C
:1018C000F30193FD859193FF81913F01882309F4F2
:1018D00053C1853239F493FD859193FF81913F0186
:1018E000853229F4B70190E00E943C0EE7CF912C9D
:1018F000212C312CFFE1F31538F08B3211F190F4EB
:10190000803209F1833229F137FC3CC020ED280FE9
:101910002A3050F536FE20C08AE0989E200D112412
:10192000922E06C08D3291F0803371F7689430F8B2
:10193000F30193FD859193FF81913F018111DACFEE
:1019400021C0689431F8689432F8F2CF689433F883
:10195000EFCF689434F8ECCFEAE02E9E200D1124EE
:10196000222E689435F8E4CF8E3229F436FC04C177
:10197000689436F8DDCF8C3619F4689437F8D8CFF0
:101980008836B1F2982F9F7D95549330E0F08336DE
:10199000A1F18337C1F1833509F063C02801F2E07A
:1019A0004F0E511CF801C080D180692D70E036FCCB
:1019B00002C06FEF7FEFC6010E94260E4C016894B3
:1019C00037F882010AC00C5F1F4FFFE3F9838824B8
:1019D0008394912C6501E89437F833FE2DC0522C86
:1019E0008114910471F5552009F468CFB70180E2A4
:1019F00090E00E943C0E5A94F6CFF80180818983D2
:101A00000E5F1F4FE4CF2801F2E04F0E511CF8018A
:101A1000C080D180692D70E036FC02C06FEF7FEF8F
:101A2000C6010E94310E4C018201D5CFB70180E280
:101A300090E00E943C0E2A942814190409F0B0F793
:101A4000CECFF60137FC859137FE81916F01B7014A
:101A500090E00E943C0E51105A94F1E08F1A9108C8
:101A6000BFCF843619F0893609F077C0F80137FE08
:101A70006BC060817181828193810C5F1F4FF32D58
:101A8000FF763F2E97FF09C09095809570956195E0
:101A90007F4F8F4F9F4F689437F82AE030E0A501C1
:101AA0000E946C0EC82ECA188C2C432C36FE0CC01B
:101AB000E89440F8C91440F434FE05C032FC03C079
:101AC000F32DFE7E4F2E892C44FE95C0FE01EC0DB9
:101AD000F11D8081803309F087C0242D297E422E9C
:101AE000842D8870582E43FC95C040FE8FC09C2CDE
:101AF000821418F42C0C922C981844FE91C0B70153
:101B000080E390E00E943C0E42FE09C088E790E02E
:101B100041FE02C088E590E0B7010E943C0EC91466
:101B200008F48AC0CA94D12C9FEFC91AD90ACA0CEA
:101B3000DB1CF60182916F01B70190E00E943C0E20
:101B4000AC14BD04B1F74FCF60817181072E000C3A
:101B5000880B990B0E5F1F4F92CFD32CE894D4F8CB
:101B60002AE030E0853739F1232D297FD22E8F36B8
:101B700001F148F48835A9F0F701868197812B9609
:101B8000E2E10C94E60E803749F08837A9F7D4FEDD
:101B900002C06894D2F820E130E00DC06894D4F817
:101BA000F6CF34FE03C0822F8660D82E20E132E0CB
:101BB00002C028E030E0F801D7FE0FC060817181DB
:101BC000828193810C5F1F4FA5010E946C0EC82E6D
:101BD000CA183D2CE89437F867CF6081718190E096
:101BE00080E00E5F1F4FF0CF42FC02C0839478CF9D
:101BF0008394839475CF842D867809F471CFF6CFC2
:101C0000B70180E290E00E943C0E83948214C0F3FE
:101C1000512C73CF522C5818821408F46ECFF8CF81
:101C2000842D867809F47BCF8BE241FE80E247FC6D
:101C30008DE2B70190E071CFB70180E390E00E94A0
:101C40003C0E9A946CCF8FEF9FEF99CFFC010590DB
:101C5000615070400110D8F7809590958E0F9F1FAE
:101C60000895FC016150704001900110D8F78095F3
:101C700090958E0F9F1F08950F931F93CF93DF931F
:101C8000182F092FEB018B8181FD09C01FEF0FEF8A
:101C9000812F902FDF91CF911F910F91089582FF97
:101CA00014C02E813F818C819D81281739073CF417
:101CB000E881F981CF0101969983888310838E8111
:101CC0009F8101969F838E83E3CFE885F985812FDD
:101CD0000995892BA1F3DACFFA01AA27283051F10F
:101CE000203181F1E8946F936E7F6E5F7F4F8F4F4D
:101CF0009F4FAF4FB1E03ED0B4E03CD0670F781FAC
:101D0000891F9A1FA11D680F791F8A1F911DA11D90
:101D10006A0F711D811D911DA11D20D009F46894C9
:101D20003F912AE0269F11243019305D3193DEF671
:101D3000CF010895462F4770405D4193B3E00FD027
:101D4000C9F7F6CF462F4F70405D4A3318F0495D12
:101D500031FD4052419302D0A9F7EACFB4E0A695F5
:101D60009795879577956795BA95C9F70097610517
:101D7000710508959B01AC010A2E0694579547956D
:101D800037952795BA95C9F7620F731F841F951F62
:101D9000A01D08952F923F924F925F926F927F9273
:101DA0008F929F92AF92BF92CF92DF92EF92FF926B
:101DB0000F931F93CF93DF93CDB7DEB7CA1BDB0B17
:101DC0000FB6F894DEBF0FBECDBF09942A883988BC
:101DD00048885F846E847D848C849B84AA84B984C3
:101DE000C884DF80EE80FD800C811B81AA81B981CF
:101DF000CE0FD11D0FB6F894DEBF0FBECDBFED01E3
:061E00000895F894FFCFE5
:101E06000000000300000000A60000000000000023
:101E160080BF04000100FFFF010000000000CF02A8
:101E26008000010001000100010001000100000026
:101E36000000010001000000000000000000010099
:101E46000100000001000100000001000100010086
:101E56000100010000000000010000000100010077
:101E66000000000001000100010000000100010067
:101E76000000010001000100000001000100010056
:101E86000100010001000100010000000000000047
:101E96000000010001000100010001000100010035
:101EA6000100010001000100000001000100C0F96D
:101EB600A4B0999282F880908883C6A1868EC28942
:101EC600CFE18AC7EAC8C08C4ACC9287C1C1D589FE
:101ED60091A4F1F2F4F8FEFDFBF7EFDFBF57656C56
:101EE6006B6F6D2062696A2043696A666572566F18
:101EF600726D65722C206472756B206F702064653C
:101F0600206C696E6B7365206B6E6F70206F6D2031
:101F1600746520626567696E6E656E0A004472615B
:101F260061692061616E20646520706F74656E74EE
:101F3600696F6D6574657220766F6F72206A6520B1
:101F4600686574207370656C20626567696E7420BD
:101F5600766F6F722065656E2072616E646F6D209C
:101F6600736565642061616E207465206D616B65C3
:101F76006E210A0043696A666572566F726D6572F4
:101F8600004C6576656C2025643A202564207C200B
:101F960020202564207C20202564207C20202564A8
:061FA6002E2564220A0052
:00000001FF
